:020000040000FA
:060000000A128A110C280F
:10000800FE00030EF1000A08F2000A128A11F32C0E
:100018000A128A110F2883120313D50183010A12C9
:100028008A11F329831203132D088039AE002E0894
:10003800B7002D08AE002E07AF002F08BE00AC1F7A
:100048002628272828283E143E0803192C282D285E
:100058003D283E0A031D312832283A280030AD00D9
:100068000030AC000030AB000030AA00AC17AD0186
:1000780045280030AD000030AC000030AB00003047
:10008800AA0029088039AE002E08B7062908AE0054
:100098002E07AF002F08BF00A81F53285428552843
:1000A8003F143F08031959285A286A283F0A031D94
:1000B8005E285F2867280030A9000030A8000030BB
:1000C800A7000030A600A817A90172280030A900CF
:1000D8000030A8000030A7000030A6002908280436
:1000E80027042604031D79287A2893280030AD00B8
:1000F8000030AC000030AB000030AA008030AC0407
:100108007F30AD043708AE002E08AD042D08A900D5
:100118002C08A8002B08A7002A08A600F2293E08E8
:10012800031D97289828A1280030A9000030A800AE
:100138000030A7000030A600F2293E08AE00AF014B
:100148002F08B1003F082E02B000031CB10330088D
:100158007F3EB80031080318013E003EB9002D0863
:10016800B6002C08B5002B08B4002A08B3000030EC
:10017800AD000030AC000030AB000030AA00003009
:10018800BD000030BC000030BB000030BA00BF0129
:1001980017293F080319D128D228F2280130AE00C8
:1001A8000310B30DB40DB50DB60DAE0BD428013048
:1001B800AE000310AA0DAB0DAC0DAD0DAE0BDD28D6
:1001C800BD1FE728E828E9282A140130AE000310EB
:1001D800BA0DBB0DBC0DBD0DAE0BEB2829083602C0
:1001E800031D002928083502031D002927083402A9
:1001F800031D002926083302031C03290429132997
:100208003D172608B3022708031C270FB402280845
:10021800031C280FB5022908031C290FB602013058
:10022800AE002E08BF071A303F02031C1C291D29E7
:10023800CD28360835043404330403192429252924
:1002480044293A1444290130AE000310AA0DAB0D1D
:10025800AC0DAD0DAE0B2929BD1F33293429352925
:100268002A140130AE000310BA0DBB0DBC0DBD0D34
:10027800AE0B3729FF30B8070318B90AFF30B907A2
:10028800AC1F472948292729BF01BD1F4C294D29E3
:100298006929FF303A05AE00FF303B05AF00FF305B
:1002A8003C05B0007F303D05B100310830042F0413
:1002B8002E040319602961296429BF01BF0A69292D
:1002C8002A1C67296829692961293F0803196D29AA
:1002D8006E299F290130AA07003003180130AB07A7
:1002E800003003180130AC07003003180130AD07A7
:1002F8002D1C7F2980299F292A08AE002B08AF00D2
:100308002C08B0002D08B1000130B200310DB10C3D
:10031800B00CAF0CAE0CB20B8A293108AD00300816
:10032800AC002F08AB002E08AA000130B80703184C
:10033800B90A0030B9073908803AFF0080307F02D7
:10034800031DA829FF303802031CAB29AC29BA29A0
:10035800FF3083120313B8000030B9000030AD003D
:100368000030AC000030AB000030AA008312031349
:100378003908803AFF0080307F02031DC52901300B
:1003880038020318C829C929D62983120313B801CA
:10039800B9010030AD000030AC000030AB000030D7
:1003A800AA00B701831203133808AE002E08BE0056
:1003B8003E1CDF29E029E229AC17E6297F30AE0090
:1003C8002E08AC053E08AE0003102E0CAF002F0817
:1003D800AD003708AE002E08AD048A2808008B1738
:1003E8000B17831603130C1783120313D101D201C1
:1003F80083160313860187014130831203139F007C
:100408008E30831603139F0083121F0804389F0041
:100418005508CB00CC01CD01CE014E08F6004D08A1
:10042800F5004C08F4004B08F30000300A128A115A
:10043800F9220A128A11760883120313AD0075088F
:10044800AC007408AB007308AA004030A900023061
:10045800A800F130A700AA30A6000A128A111620B7
:100468000A128A11831203132908C3002808C2003C
:100478002708C1002608C0000A128A11B5230A12EB
:100488008A11831203134108D4004008D3000A30AC
:10049800F3000030F4005408F6005308F5000A127F
:1004A8008A119A240A128A11740883120313D0003D
:1004B8007308CF000A30F3000030F4005408F60047
:1004C8005308F5000A128A1131240A128A11740895
:1004D80083120313D2007308D1008F2A8701D12A0F
:1004E80001308700D12A02308700D12A03308700E3
:1004F800D12A04308700D12A05308700D12A063056
:100508008700D12A07308700D12A08308700D12AEE
:1005180009308700D12A5208003A0319942A722A0E
:100528005108003A0319722A013A0319742A033A46
:100538000319772A013A03197A2A073A03197D2AF7
:10054800013A0319802A033A0319832A013A031945
:10055800862A0F3A0319892A013A03198C2A722A22
:100568008601082A01308600082A02308600082AF7
:1005780003308600082A04308600082A05308600E1
:10058800082A06308600082A07308600082A08301C
:100598008600082A09308600082A5008003A0319FC
:1005A800D62AB42A4F08003A0319B42A013A031983
:1005B800B62A033A0319B92A013A0319BC2A073A99
:1005C8000319BF2A013A0319C22A033A0319C52A93
:1005D800013A0319C82A0F3A0319CB2A013A031919
:1005E800CE2AB42A0A128A110C2883120313A000F7
:1005F80020080319002B012B152BF61F042B052BA4
:10060800152B7309A2007409A3007509A4007609C3
:10061800A500A20A0319A30A0319A40A0319A50A23
:100628001D2B7608A5007508A4007408A30073089C
:10063800A2007608750474047304031D242B252B6B
:100648002E2B0030F6000030F5000030F4000030AA
:10065800F300B42B9630F7007708A100402B013047
:10066800F7007708A10701300310A50CA40CA30C10
:10067800A20CFF3E031D382BFE302505031D452B1C
:10068800462B332B622B0130F7007708A107013086
:10069800A207003003180130A30700300318013007
:1006A800A407003003180130A50701300310A50C7A
:1006B800A40CA30CA20CFF3E031D5A2BFF302505EA
:1006C800031D672B682B472B742B0130A1020130C7
:1006D800F7000310A20DA30DA40DA50DF70B6D2BAC
:1006E800A41B772B782B7E2B0230210203187D2B3D
:1006F8007E2B692B2118812B822B8A2BFF30A20598
:10070800FF30A3057F30A405FF30A5050310A10C19
:100718002108F700F801F901FA0118300310F70D64
:10072800F80DF90DFA0DFF3E031D922B7708A20470
:100738007808A3047908A4047A08A50420080319F2
:10074800A62BA72BAC2BF61FAA2BAB2BAC2BA517D4
:100758002508F6002408F5002308F4002208F30011
:100768000800031083120313420D430DC40044080C
:10077800CA004A08031DC12BC22BCB2B0030C30073
:100788000030C2000030C1000030C000302C4008EA
:10079800C4004108C5004208C6004308C7001F300E
:1007A8000310C70CC60CC50CC40CFF3E031DD42B8C
:1007B8004408C8004808C900C217FF30C005FF3008
:1007C800C105FF30C2050030C3059630CA02CA1FF2
:1007D800EE2BEF2B092C4A08803A973E0318F52B8D
:1007E800F62BF72BC22B01300310C30CC20CC10C23
:1007F800C00CFF3E031DF82B0130C4004408CA0793
:10080800031D072C082CF72B202C20304A02031C30
:100818000E2C0F2C1B2CC22B0130C4000310C00D52
:10082800C10DC20DC30DC40B122C0130CA024A08F7
:10083800031D1F2C202C102C49080319242C252CAF
:10084800302CC009C109C209C309C00A0319C10A69
:100858000319C20A0319C30A080083120313A1016A
:10086800F41F372C382C3F2CF309F409F30A031929
:10087800F40AA101A10AF61F422C432C4C2CF509BD
:10088800F609F50A0319F60A0130F7007708A106F8
:10089800A201A301730874040319532C542C8B2C44
:1008A800A001A00A622C01300310F30DF40DFF3EE5
:1008B800031D582C0130F7007708A007F41F652C9A
:1008C800662C572C01300310A20DA30DFF3E031D0B
:1008D800672C74087602031D732C73087502031CB9
:1008E800762C772C7E2C7308F5027408031CF6030B
:1008F800F602221401300310F40CF30CFF3E031D22
:100908007F2C0130A002031D8A2C8B2C662C210819
:1009180003198F2C902C952CA209A309A20A03195C
:10092800A30A2308F4002208F3000800F901F61FBF
:100938009E2C9F2CA62CF509F609F50A0319F60A30
:10094800F901F90AF41FA92CAA2CAF2CF309F40910
:10095800F30A0319F40A730874040319B42CB52CA8
:10096800E42CF801F80AC32C01300310F30DF40D40
:10097800FF3E031DB92C0130F7007708F807F41F74
:10098800C62CC72CB82C74087602031DCD2C73080E
:100998007502031CD02CD12CD72C7308F5027408CF
:1009A800031CF603F60201300310F40CF30CFF3EAF
:1009B800031DD82C0130F802031DE32CE42CC72CAE
:1009C80079080319E82CE92CEE2CF509F609F50A43
:1009D8000319F60A7608F4007508F3000800831274
:1009E80003130C1FF82CF92C042DD50183160313BF
:1009F8001E08831203135507F0007008D5000C1366
:0E0A080072088A00710E8300FE0E7E0E090039
:00000001FF
