:020000040000FA
:060000000A128A110C280F
:10000800FE00030EF0000A08F1000A128A11BA284D
:100018000A128A110F2883134A30FD000030FE00AF
:10002800A630FF00363084000A128A11D2200A1244
:100038008A11CA01CB0183010A128A11232883126B
:100048000313B401B5018316031386018312031346
:1000580086018B170B178B16073083160313810045
:100068003B30831203138100203084003630F200C5
:100078000408F3001430F4007208840083130008A5
:10008800F500F20A7308840075088000F30AF40B7F
:10009800402864304A064B04031D532854287E2800
:1000A8000130B4070318B50A0030B507CA01CB01FF
:1000B8007E28200886004D28220886004D2824081E
:1000C80086004D28260886004D28280886004D28D9
:1000D8002A0886004D282C0886004D282E08860000
:1000E8004D28300886004D28320886004D28B40176
:1000F800B5014D283508003A031983287B283408B0
:10010800003A03195D28013A03196028033A0319D4
:100118006328013A03196628073A03196928013A3E
:1001280003196C28033A03196F28013A0319722836
:100138000F3A03197528013A031978287B280A12FF
:100148008A110C283F340034063400345B34003400
:100158004F340034663400346D3400347D34003458
:10016800073400347F3400346F3400340B1DBD284D
:10017800BE28C728013083120313CA070318CB0A05
:100188000030CB070B1171088A00700E8300FE0E39
:100198007E0E09007E088A007F0882000A128A11F2
:1001A800CE200A128A118000840A04087D060319E9
:0A01B8000034FF0A0319FE0AD228E2
:00000001FF
