:020000040000FA
:060000000A128A11FC2F18
:100DC2008316031389018312031389010914F001A5
:100DD200F1010130F0070318F10A0030F107710840
:100DE200803AFF0093307F02031DF92E8830700293
:100DF200031CFC2EFD2EEA2E831203130910F001B0
:100E0200F1010130F0070318F10A0030F10771080F
:100E1200803AFF0093307F02031D112F8830700249
:100E2200031C142F152F022F831203138914F001B0
:100E3200F1010130F0070318F10A0030F1077108DF
:100E4200803AFF0093307F02031D292F8830700201
:100E5200031C2C2F2D2F1A2F831203138910F0013C
:100E6200F1010130F0070318F10A0030F1077108AF
:100E7200803AFF0093307F02031D412F88307002B9
:100E8200031C442F452F322F831203130915F0013F
:100E9200F1010130F0070318F10A0030F10771087F
:100EA200803AFF0093307F02031D592F8830700271
:100EB200031C5C2F5D2F4A2F831203130911F001CB
:100EC200F1010130F0070318F10A0030F10771084F
:100ED200803AFF0093307F02031D712F8830700229
:100EE200031C742F752F622F831203130915F0014F
:100EF200F1010130F0070318F10A0030F10771081F
:100F0200803AFF0093307F02031D892F88307002E0
:100F1200031C8C2F8D2F7A2F831203130911F001DA
:100F2200F1010130F0070318F10A0030F1077108EE
:100F3200803AFF0093307F02031DA12F8830700298
:100F4200031CA42FA52F922F831203138914F001DF
:100F5200F1010130F0070318F10A0030F1077108BE
:100F6200803AFF0093307F02031DB92F8830700250
:100F7200031CBC2FBD2FAA2F831203138910F0016B
:100F8200F1010130F0070318F10A0030F10771088E
:100F9200803AFF0093307F02031DD12F8830700208
:100FA200031CD42FD52FC22F831203130914F0016F
:100FB200F1010130F0070318F10A0030F10771085E
:100FC200803AFF0093307F02031DE92F88307002C0
:100FD200031CEC2FED2FDA2F831203130910F001FB
:100FE200F1010130F0070318F10A0030F107F22F86
:0E0FF2000A128A11002883010A128A11E12EC8
:00000001FF
