:020000040000FA
:060000000A128A110C280F
:10000800FE00030EF1000A08F2000A128A112D2CD4
:100018000A128A110F2883120313D30183010A12CB
:100028008A11F329831203132D088039AE002E0894
:10003800B7002D08AE002E07AF002F08BE00AC1F7A
:100048002628272828283E143E0803192C282D285E
:100058003D283E0A031D312832283A280030AD00D9
:100068000030AC000030AB000030AA00AC17AD0186
:1000780045280030AD000030AC000030AB00003047
:10008800AA0029088039AE002E08B7062908AE0054
:100098002E07AF002F08BF00A81F53285428552843
:1000A8003F143F08031959285A286A283F0A031D94
:1000B8005E285F2867280030A9000030A8000030BB
:1000C800A7000030A600A817A90172280030A900CF
:1000D8000030A8000030A7000030A6002908280436
:1000E80027042604031D79287A2893280030AD00B8
:1000F8000030AC000030AB000030AA008030AC0407
:100108007F30AD043708AE002E08AD042D08A900D5
:100118002C08A8002B08A7002A08A600F2293E08E8
:10012800031D97289828A1280030A9000030A800AE
:100138000030A7000030A600F2293E08AE00AF014B
:100148002F08B1003F082E02B000031CB10330088D
:100158007F3EB80031080318013E003EB9002D0863
:10016800B6002C08B5002B08B4002A08B3000030EC
:10017800AD000030AC000030AB000030AA00003009
:10018800BD000030BC000030BB000030BA00BF0129
:1001980017293F080319D128D228F2280130AE00C8
:1001A8000310B30DB40DB50DB60DAE0BD428013048
:1001B800AE000310AA0DAB0DAC0DAD0DAE0BDD28D6
:1001C800BD1FE728E828E9282A140130AE000310EB
:1001D800BA0DBB0DBC0DBD0DAE0BEB2829083602C0
:1001E800031D002928083502031D002927083402A9
:1001F800031D002926083302031C03290429132997
:100208003D172608B3022708031C270FB402280845
:10021800031C280FB5022908031C290FB602013058
:10022800AE002E08BF071A303F02031C1C291D29E7
:10023800CD28360835043404330403192429252924
:1002480044293A1444290130AE000310AA0DAB0D1D
:10025800AC0DAD0DAE0B2929BD1F33293429352925
:100268002A140130AE000310BA0DBB0DBC0DBD0D34
:10027800AE0B3729FF30B8070318B90AFF30B907A2
:10028800AC1F472948292729BF01BD1F4C294D29E3
:100298006929FF303A05AE00FF303B05AF00FF305B
:1002A8003C05B0007F303D05B100310830042F0413
:1002B8002E040319602961296429BF01BF0A69292D
:1002C8002A1C67296829692961293F0803196D29AA
:1002D8006E299F290130AA07003003180130AB07A7
:1002E800003003180130AC07003003180130AD07A7
:1002F8002D1C7F2980299F292A08AE002B08AF00D2
:100308002C08B0002D08B1000130B200310DB10C3D
:10031800B00CAF0CAE0CB20B8A293108AD00300816
:10032800AC002F08AB002E08AA000130B80703184C
:10033800B90A0030B9073908803AFF0080307F02D7
:10034800031DA829FF303802031CAB29AC29BA29A0
:10035800FF3083120313B8000030B9000030AD003D
:100368000030AC000030AB000030AA008312031349
:100378003908803AFF0080307F02031DC52901300B
:1003880038020318C829C929D62983120313B801CA
:10039800B9010030AD000030AC000030AB000030D7
:1003A800AA00B701831203133808AE002E08BE0056
:1003B8003E1CDF29E029E229AC17E6297F30AE0090
:1003C8002E08AC053E08AE0003102E0CAF002F0817
:1003D800AD003708AE002E08AD048A2808008B1738
:1003E8000B17831603130C17860183120313861049
:1003F800061041309F008E30831603139F0083122E
:1004080003131F0804389F005308CB00CC01CD010B
:10041800CE014E08F6004D08F5004C08F4004B08D4
:10042800F30000300A128A11F5220A128A1176089E
:1004380083120313AD007508AC007408AB00730891
:10044800AA004030A9000230A800F130A700AA3065
:10045800A6000A128A1116200A128A11831203139F
:100468002908C3002808C2002708C1002608C000C0
:100478000A128A11B1230A128A118312031341083E
:10048800D0004008CF005008803AFF0080307F023B
:10049800031D502A2D304F020318532A542A982A34
:1004A800831203135008803AFF0080307F02031D37
:1004B8005F2A24304F02031C622A632A982A831277
:1004C80003130614D101D201013083120313D1079B
:1004D8000318D20A0030D2075208803AFF0083304E
:1004E8007F02031D792AE8305102031C7C2A7D2AE9
:1004F800682A831203130610D101D2010130831236
:100508000313D1070318D20A0030D2075208803AE1
:10051800FF0083307F02031D932AE8305102031C39
:10052800962A972A822A032A831203135008803AAC
:10053800FF0080307F02031DA32A14304F020318E6
:10054800A62AA72ADC2A831203138614D101D20112
:10055800013083120313D1070318D20A0030D207DF
:100568005208803AFF0083307F02031DBD2AE8301D
:100578005102031CC02AC12AAC2A83120313861015
:10058800D101D201013083120313D1070318D20A13
:100598000030D2075208803AFF0083307F02031DE3
:1005A800D72AE8305102031CDA2ADB2AC62A032A92
:1005B800C930831203134F06031DE72A500A031993
:1005C800E62AE72AEE2A96304F065004031DED2A44
:1005D800EE2AF12A86140614032A032A0A128A111B
:1005E8000C2883120313A00020080319FC2AFD2AF3
:1005F800112BF61F002B012B112B7309A200740974
:10060800A3007509A4007609A500A20A0319A30A84
:100618000319A40A0319A50A192B7608A500750859
:10062800A4007408A3007308A20076087504740473
:100638007304031D202B212B2A2B0030F6000030D9
:10064800F5000030F4000030F300B02B9630F700CE
:100658007708A1003C2B0130F7007708A10701308B
:100668000310A50CA40CA30CA20CFF3E031D342BF5
:10067800FE302505031D412B422B2F2B5E2B01300D
:10068800F7007708A1070130A207003003180130EE
:10069800A307003003180130A40700300318013005
:1006A800A50701300310A50CA40CA30CA20CFF3E57
:1006B800031D562BFF302505031D632B642B432B8D
:1006C800702B0130A1020130F7000310A20DA30D19
:1006D800A40DA50DF70B692BA41B732B742B7A2B78
:1006E800023021020318792B7A2B652B21187D2BD8
:1006F8007E2B862BFF30A205FF30A3057F30A40593
:10070800FF30A5050310A10C2108F700F801F90135
:10071800FA0118300310F70DF80DF90DFA0DFF3E28
:10072800031D8E2B7708A2047808A3047908A40473
:100738007A08A50420080319A22BA32BA82BF61FBF
:10074800A62BA72BA82BA5172508F6002408F5002B
:100758002308F4002208F30008000310831203138F
:10076800420D430DC4004408CA004A08031DBD2BAE
:10077800BE2BC72B0030C3000030C2000030C100C0
:100788000030C0002C2C4008C4004108C5004208B5
:10079800C6004308C7001F300310C70CC60CC50CA1
:1007A800C40CFF3E031DD02B4408C8004808C900EC
:1007B800C217FF30C005FF30C105FF30C205003049
:1007C800C3059630CA02CA1FEA2BEB2B052C4A0830
:1007D800803A973E0318F12BF22BF32BBE2B0130F6
:1007E8000310C30CC20CC10CC00CFF3E031DF42B3C
:1007F8000130C4004408CA07031D032C042CF32B42
:100808001C2C20304A02031C0A2C0B2C172CBE2B44
:100818000130C4000310C00DC10DC20DC30DC40BBF
:100828000E2C0130CA024A08031D1B2C1C2C0C2C50
:1008380049080319202C212C2C2CC009C109C209F4
:10084800C309C00A0319C10A0319C20A0319C30A52
:100858000800831203130C1F322C332C3E2CD301B7
:10086800831603131E08831203135307F00070083E
:10087800D3000C1372088A00710E8300FE0E7E0EE0
:02088800090065
:00000001FF
