:020000040000FA
:060000000A128A110C280F
:10000800FE00030EF0000A08F1000A128A119A2A6B
:100018000A128A110F2883135E30FD000230FE0099
:100028008630FF004A3084000A128A11C5220A125B
:100038008A11DE01DF0183010A128A112328831243
:100048000313C801C901831603138601831203131E
:1000580086018B170B178B16073083160313810045
:100068003B30831203138100831603138901831223
:1000780003138901343084004A30B0000408B10009
:100088001430B2003008840083130008B300B00AAB
:100098003108840033088000B10AB20B4628643066
:1000A800831203135E065F04031D5B285C28832804
:1000B8000130C8070318C90A0030C907DE01DF018B
:1000C800832834088600A82836088600A828380817
:1000D8008600A8283A088600A8283C088600A82890
:1000E8003E088600A82840088600A82842088600FE
:1000F800A82844088600A82846088600A828490891
:10010800003A03198828A8284808003A03196528DE
:10011800013A03196828033A03196B28013A0319AD
:100128006E28073A03197128013A03197428033A0B
:1001380003197728013A03197A280F3A03197D28F9
:10014800013A03198028A82809140A128A115F2283
:100158000A128A118312031309100A128A115F22E4
:100168000A128A118312031389140A128A115F2250
:100178000A128A118312031389100A128A115F2244
:100188000A128A118312031309150A128A115F22AF
:100198000A128A118312031309110A128A115F22A3
:1001A8000A128A118312031309150A128A115F228F
:1001B8000A128A118312031309110A128A115F2283
:1001C8000A128A118312031389140A128A115F22F0
:1001D8000A128A118312031389100A128A115F22E4
:1001E8000A128A118312031309140A128A115F2250
:1001F8000A128A118312031309100A128A115F2244
:100208000A128A1153280A128A110C28831203131E
:10021800AC002430A6002608A900CA2925302F06DC
:100228000319172918291F292F080A128A11D422FD
:100238000A128A11CA29AA010130AC07FF302C071B
:1002480084000A128A11AE220A128A11AF00003AFB
:100258000319DE29643A031935290D3A031935299A
:10026800CA292908840083130008AD00840A0008FD
:10027800AE000230A6002608A907AE1F442945296A
:100288004E290330A6002608AA04AD09AE09AD0A16
:100298000319AE0AAF01AF0A2F08A6002607013ED0
:1002A80084000A128A11AE220A128A11A7000A12C1
:1002B8008A11AE220A128A11A80028082E02031DEC
:1002C800672927082D0203186A296B296C297629C2
:1002D8000130A6002608AF0705302F06031D752933
:1002E800762950292A08033903197B297C29822970
:1002F8002D300A128A11D4220A128A11831203138A
:100308002F08A6002608AB00BF290A30A00000303D
:10031800A1002B08A6002607013E84000A128A11B4
:10032800AE220A128A11F2000A128A11AE220A12A9
:100338008A11F3002E08F5002D08F4000A128A111C
:10034800DF210A128A11730883120313A3007208AB
:10035800A2000A128A1123220A128A118312031395
:100368002008303EA7002708AF002F080A128A117C
:10037800D4220A128A11FF3083120313A60026081A
:10038800AB072B0A031DC929CA2989290130831201
:100398000313AC07FF302C0784000A128A11AE221F
:1003A8000A128A11A6002608AF002F08031DDD29AE
:1003B800DE2912290800F701F801720873040319ED
:1003C800E629E7291E2AF901F90AF529013003105F
:1003D800F20DF30DFF3E031DEB290130F600760800
:1003E800F907F31FF829F929EA2901300310F70D55
:1003F800F80DFF3E031DFA2973087502031D062A2E
:1004080072087402031C092A0A2A112A7208F402C3
:100418007308031CF503F502771401300310F30C7D
:10042800F20CFF3E031D122A0130F902031D1D2A9A
:100438001E2AF9297808F3007708F20008008312C9
:1004480003132008210403192A2A2B2A5A2AFB01FC
:10045800FB0A392A01300310A00DA10DFF3E031D30
:100468002F2A0130FA007A08FB07A11F3C2A3D2AEF
:100478002E2A21082302031D432A20082202031CD6
:10048800462A472A4D2A2008A2022108031CA30352
:10049800A30201300310A10CA00CFF3E031D4E2A3D
:1004A8000130FB02031D592A5A2A3D2A2308A100BC
:1004B8002208A00008000130831203139000303096
:1004C8008F00D4308E00F201F3018312031310144D
:1004D8000C1C6F2A702A6C2A10100C100130F207BD
:1004E8000318F30A0030F3077308803AFF008030DE
:1004F8007F02031D812A65307202031C842A852A23
:10050800692A08003F340034063400345B34003470
:100518004F340034663400346D3400347D34003494
:10052800073400347F3400346F3400340B1D9D2AA7
:100538009E2AA72A013083120313DE070318DF0A55
:100548000030DF070B1171088A00700E8300FE0E61
:100558007E0E090002308A000408840A82070034EB
:10056800013400340A34003464340034E834033489
:10057800103427342534643400347E088A007F0818
:1005880082000A128A11C1220A128A118000840A82
:1005980004087D0603190034FF0A0319FE0AC52A58
:0205A800080049
:00000001FF
