:020000040000FA
:100000000A128A11EE2F00308A000408840A82073F
:10001000003449346E34763461346C346934643479
:10002000203465346E3474347234793421340034BD
:100E540008007E088A007F0882000A128A112B2764
:100E64000A128A118000840A04087D0603190034DA
:100E7400FF0A0319FE0A2F2F3F34003406340034CE
:100E84005B3400344F340034663400346D34003441
:100E94007D340034073400347F3400346F3400343C
:100EA400F3007030F0007008F1005E2F72080A122F
:100EB4008A112A270A128A110130F307FF307307B7
:100EC40084000A128A1103200A128A11F0007008A1
:100ED400F2007208031D6F2F702F582F0800343052
:100EE40084002030F4000408F5001430F60074087F
:100EF400840083130008F700F40A75088400770857
:100F04008000F50AF60B792F8316031386018312EA
:100F140003138601C62F83120313340886008C2F13
:100F240083120313360886008C2F831203133808A8
:100F340086008C2F831203133A0886008C2F8312A9
:100F440003133C0886008C2F831203133E0886008B
:100F54008C2F83120313400886008C2F83120313F3
:100F6400420886008C2F83120313440886008C2FBA
:100F740083120313460886008C2F01300A128A114B
:100F840052270A128A118C2F0030003A0319CB2FF2
:100F9400BF2F0530003A03198D2F013A0319922F00
:100FA400033A0319972F013A03199C2F073A03199F
:100FB400A12F013A0319A62F033A0319AB2F013AC3
:100FC4000319B02F0F3A0319B52F013A0319BA2F99
:100FD400BF2F0A128A11002883133430FD00073012
:100FE400FE003E30FF00203084000A128A112F27B1
:0C0FF4000A128A1183010A128A11712F5F
:00000001FF
